:100000000C9472000C94B2000C94B2000C94B200E8
:100010000C94B2000C94B2000C94B2000C94B20098
:100020000C94B2000C94B2000C94B2000C94B20088
:100030000C94A4000C94B2000C94B2000C94B20086
:100040000C94B2000C94B2000C94B2000C94B20068
:100050000C94B2000C94B2000C94B2000C945D01AC
:100060000C94B2000C949C010C94B2000C94B2005D
:100070000C94B2000C94B2000C94B2000C94B20038
:100080000C94B2000C94B2000C94B2000C94B20028
:100090000C94C2010C94B2000C94B2000C94B20007
:1000A0000C94B2000C94B2000C94B2000C94B20008
:1000B0000C94B2000C94B2000C94B2000C94B200F8
:1000C0000C94B2000C94B2000C94B2000C94E801B1
:1000D0000C94B2000C94B2000C940E020C94B2007A
:1000E0000C94B2001124A0E0B4E0ADBFBEBF0F92EB
:1000F000A0E0B4E0C5E6D4E0E0EBF8E000E00BBF40
:10010000AC17BD0719F007900D92FACF0E941003AB
:100110000E941A030E947B030E940D03AA1BBB1BB3
:1001200051E1881F991F5A9541F0AA1FBB1FA617BE
:10013000B707B8F3A61BB70BF4CF80959095682F3F
:10014000792F8A2F9B2F08950F930027A89504BF1E
:100150000091600008610093600000270093600038
:100160000F9118958895FECFFA01DC01E115F10594
:1001700019F06D933197FACF08952F923F924F92D5
:100180005F926F927F928F929F92CF92DF92EF92C7
:10019000FF920F931F93CF93DF93CDB7DEB72697D0
:1001A0000FB6F894DEBF0FBECDBF1A8309831601C8
:1001B0002A0139017C826B829501A1013E822D8248
:1001C0000E946D024B018C01B70189819A819301D4
:1001D000A2010E946D027B016C01E80CF91CC01E9B
:1001E000D11E00E010E0B101C8019201A8010E94F7
:1001F0006D024B013C018E0C9F1C6C1C7D1CB501DB
:10020000C8012B803C809101A8010E946D027B01F6
:100210006C01B501C8019201A8010E946D02C60ED1
:10022000D71E801F911F880E991E601E711E6D8142
:100230007E81C8019101A8010E946D02C60ED71EE1
:10024000801F911F880E991E601E711E9701A601C6
:10025000B401C30126960FB6F894DEBF0FBECDBF22
:10026000DF91CF911F910F91FF90EF90DF90CF9092
:100270009F908F907F906F905F904F903F902F90C6
:100280000895DC01A115B10511F08C9108950E942B
:1002900007031F93162F0E944101982F912381E09D
:1002A000903009F4812D1F910895DC01A115B1054D
:1002B00011F06C9308950E9407030F920FB60F92EE
:1002C0002F933F934F935F936F937F938F939F935E
:1002D0008091F1049091F2042091F3043091F404A0
:1002E0004091F5045091F6046091F7047091F80480
:1002F0008058914C2F4F3F4F4F4F5F4F6F4F7F4F65
:100300005093F6044093F5047093F8046093F70457
:100310009093F2048093F1043093F4042093F30457
:100320009F918F917F916F915F914F913F912F910D
:100330000F900FBE0F9018950F920FB60F921F924D
:1003400011242F933F934F935F936F937F938F93DA
:100350009F93AF93BF93EF93FF9387E594E00E9441
:100360003402FF91EF91BF91AF919F918F917F9157
:100370006F915F914F913F912F911F900F900FBE02
:100380000F9018950F920FB60F921F9211242F9372
:100390003F934F935F936F937F938F939F93AF930D
:1003A000BF93EF93FF938DE294E00E943402FF919C
:1003B000EF91BF91AF919F918F917F916F915F91DD
:1003C0004F913F912F911F900F900FBE0F90189556
:1003D0000F920FB60F921F9211242F933F934F93BA
:1003E0005F936F937F938F939F93AF93BF93EF939D
:1003F000FF938BE394E00E943402FF91EF91BF9151
:10040000AF919F918F917F916F915F914F913F91AC
:100410002F911F900F900FBE0F9018950F920FB64F
:100420000F921F9211242F933F934F935F936F93DB
:100430007F938F939F93AF93BF93EF93FF9389E441
:1004400094E00E943402FF91EF91BF91AF919F9190
:100450008F917F916F915F914F913F912F911F905D
:100460000F900FBE0F901895CF92DF92EF92FF92F0
:100470001F937C01E114F10409F42DC0F70182817E
:1004800093816F010E944101182FF60180859185AB
:100490006CE10E94490181708030B9F4F7018081DC
:1004A000918181159105B9F0FC0120A131A1231B97
:1004B000203259F0FC0120A1239520A320A12F7107
:1004C000A22FBB27A80FB91F1C931F91FF90EF907D
:1004D000DF90CF9008950E940703CF92DF92EF92B2
:1004E000FF920F931F93A0E0B0E0FD016D0111E0BA
:1004F0006115710576018E059F0509F0112D1170AA
:100500001030C1F48B010170107011950195110923
:100510007801E222F32204231523EE0DFF1DA01F14
:10052000B11F220F331F441F551F9695879577954E
:100530006795DDCFBF01CD011F910F91FF90EF9027
:10054000DF90CF900895EF92FF920F931F938B014E
:100550007C0180E094E066E170E00E94B702C70190
:10056000B8010E94B7020E94EB020E940D038F9215
:100570009F92AF92BF92CF92DF92EF92FF920F9332
:100580001F936B017C0180E090E08C015C01AC0169
:1005900081E00C151D0595014207530708F4812DD4
:1005A0008170803069F4D701A00FB11F8C914A018E
:1005B0000E94F202A4010F5F1F4F4F4F5F4FE8CF21
:1005C0001F910F91FF90EF90DF90CF90BF90AF9071
:1005D0009F908F9008958DE00E94F2028AE00E9421
:1005E000F20208951F93182F80915F049091600488
:1005F00060E20E94490181708030B1F3809159041A
:1006000090915A04612F0E9455011F91089586E12F
:1006100094E067E170E00E94A302F8948895FECF11
:10062000A5E6B4E089EF94E0A817B90711F01D9290
:10063000FBCF0895A0915F04B0916004A115B105AE
:1006400009F457C08C9182608C9380915B049091E7
:100650005C04612D0E94550180915D0490915E04BF
:100660006FEC0E945501809161049091620468E9E9
:100670000E945501809163049091640466E00E9499
:10068000550180E090E09093F8048093F7049093F4
:10069000F6048093F5049093F4048093F30490930C
:1006A000F2048093F10480916E00887F80936E0045
:1006B00016BC8FEF87BD83E084BD81E085BD80914E
:1006C0006E00816080936E008FB7F8942091F704DC
:1006D0003091F8042091F5043091F6042091F30450
:1006E0003091F4042091F1043091F2048FBF78949A
:1006F00008950E9407030F931F9309EF14E080E20F
:1007000092E2801B910B61E270E00E948E00AB01CF
:1007100080E092E2841B950B9093EE048093ED04AD
:100720009C01201B310B36952795369527953695DC
:1007300027953093F0042093EF04612D0E94B400BC
:10074000279A0E94B6030E94B6030E94B6030E9435
:10075000D1030E94D1030E94D1030E94B6030E94DC
:10076000B6030E94B6031F910F910895EF92FF9276
:100770000F931F932F9A21E030E000E010E0790101
:10078000A801B801C8010E94E8032F989701A801A9
:10079000B801C8010E94E8031F910F91FF90EF90EC
:1007A00008950F931F932F9A23E030E000E010E0AC
:1007B000A801B801C8010E94E8032F9821E030E0A9
:1007C000A801B801C8010E94E8031F910F91089584
:1007D0002F923F924F925F926F927F928F929F9251
:1007E000AF92BF92CF92DF92EF92FF920F931F933F
:1007F000EFB7F8948090F7049090F8046090F504B7
:100800007090F6044090F3045090F4042090F104AA
:100810003090F204EFBFE0E0FAECAAE9BBE300E0BD
:1008200010E05F016D0178010E94BD00220D331DB3
:10083000441D551D661D771D881D991D8895EFB7B0
:10084000F894A091F704B091F8040091F504109188
:10085000F604E090F304F090F404C090F104D0901A
:10086000F204EFBFE1E0C216D306E406F506060780
:100870001707A807B9070CF0E12DE170E03009F087
:10088000DDCF1F910F91FF90EF90DF90CF90BF9041
:10089000AF909F908F907F906F905F904F903F9020
:1008A0002F900895000000000000000000000000EC
:1008B00070616E69633A2072756E74696D6520654A
:1008C00072726F723A206E696C20706F696E746517
:1008D000722064657265666572656E63656504CED7
:1008E00000CD00CC00C800C900CA008704D600D5DE
:1008F00000D400D000D100D200A904360135013463
:1009000001300131013201CB04C600C500C400C072
:0509100000C100C2005F
:00000001FF
